{
  "_format": "hh-sol-artifact-1",
  "contractName": "Assessment",
  "sourceName": "contracts/Assessment.sol",
  "abi": [
    {
      "inputs": [
        {
          "internalType": "uint256",
          "name": "initBalance",
          "type": "uint256"
        }
      ],
      "stateMutability": "payable",
      "type": "constructor"
    },
    {
      "inputs": [],
      "name": "Result",
      "outputs": [
        {
          "internalType": "int256",
          "name": "",
          "type": "int256"
        }
      ],
      "stateMutability": "view",
      "type": "function"
    },
    {
      "inputs": [
        {
          "internalType": "int256",
          "name": "num1",
          "type": "int256"
        },
        {
          "internalType": "int256",
          "name": "num2",
          "type": "int256"
        }
      ],
      "name": "addNum",
      "outputs": [],
      "stateMutability": "nonpayable",
      "type": "function"
    },
    {
      "inputs": [],
      "name": "balance",
      "outputs": [
        {
          "internalType": "uint256",
          "name": "",
          "type": "uint256"
        }
      ],
      "stateMutability": "view",
      "type": "function"
    },
    {
      "inputs": [
        {
          "internalType": "int256",
          "name": "num1",
          "type": "int256"
        },
        {
          "internalType": "int256",
          "name": "num2",
          "type": "int256"
        }
      ],
      "name": "multiplyNum",
      "outputs": [],
      "stateMutability": "nonpayable",
      "type": "function"
    },
    {
      "inputs": [],
      "name": "owner",
      "outputs": [
        {
          "internalType": "address payable",
          "name": "",
          "type": "address"
        }
      ],
      "stateMutability": "view",
      "type": "function"
    },
    {
      "inputs": [
        {
          "internalType": "int256",
          "name": "num1",
          "type": "int256"
        },
        {
          "internalType": "int256",
          "name": "num2",
          "type": "int256"
        }
      ],
      "name": "subtractNum",
      "outputs": [],
      "stateMutability": "nonpayable",
      "type": "function"
    }
  ],
  "bytecode": "0x608060405260405161050d38038061050d833981810160405281019061002591906100ad565b336000806101000a81548173ffffffffffffffffffffffffffffffffffffffff021916908373ffffffffffffffffffffffffffffffffffffffff16021790555080600181905550506100da565b600080fd5b6000819050919050565b61008a81610077565b811461009557600080fd5b50565b6000815190506100a781610081565b92915050565b6000602082840312156100c3576100c2610072565b5b60006100d184828501610098565b91505092915050565b610424806100e96000396000f3fe608060405234801561001057600080fd5b50600436106100625760003560e01c806319e9a181146100675780638da5cb5b14610083578063b69ef8a8146100a1578063bd8f58fe146100bf578063d0d604f1146100db578063f4e5d599146100f7575b600080fd5b610081600480360381019061007c91906101c6565b610115565b005b61008b61012b565b6040516100989190610247565b60405180910390f35b6100a961014f565b6040516100b6919061027b565b60405180910390f35b6100d960048036038101906100d491906101c6565b610155565b005b6100f560048036038101906100f091906101c6565b61016b565b005b6100ff610181565b60405161010c91906102a5565b60405180910390f35b808261012191906102ef565b6002819055505050565b60008054906101000a900473ffffffffffffffffffffffffffffffffffffffff1681565b60015481565b80826101619190610333565b6002819055505050565b808261017791906103ab565b6002819055505050565b6000600254905090565b600080fd5b6000819050919050565b6101a381610190565b81146101ae57600080fd5b50565b6000813590506101c08161019a565b92915050565b600080604083850312156101dd576101dc61018b565b5b60006101eb858286016101b1565b92505060206101fc858286016101b1565b9150509250929050565b600073ffffffffffffffffffffffffffffffffffffffff82169050919050565b600061023182610206565b9050919050565b61024181610226565b82525050565b600060208201905061025c6000830184610238565b92915050565b6000819050919050565b61027581610262565b82525050565b6000602082019050610290600083018461026c565b92915050565b61029f81610190565b82525050565b60006020820190506102ba6000830184610296565b92915050565b7f4e487b7100000000000000000000000000000000000000000000000000000000600052601160045260246000fd5b60006102fa82610190565b915061030583610190565b92508282019050828112156000831216838212600084121516171561032d5761032c6102c0565b5b92915050565b600061033e82610190565b915061034983610190565b925082820261035781610190565b91507f8000000000000000000000000000000000000000000000000000000000000000841460008412161561038f5761038e6102c0565b5b82820584148315176103a4576103a36102c0565b5b5092915050565b60006103b682610190565b91506103c183610190565b92508282039050818112600084121682821360008512151617156103e8576103e76102c0565b5b9291505056fea2646970667358221220dec5ae4ff4ef2883103996138125b6cbfb028151a948fb4c5e9a5d9a919215da64736f6c63430008110033",
  "linkReferences": {},
  "deployedLinkReferences": {}
}