{
  "_format": "hh-sol-artifact-1",
  "contractName": "Assessment",
  "sourceName": "contracts/Assessment.sol",
  "abi": [
    {
      "inputs": [
        {
          "internalType": "uint256",
          "name": "initBalance",
          "type": "uint256"
        }
      ],
      "stateMutability": "payable",
      "type": "constructor"
    },
    {
      "inputs": [],
      "name": "Result",
      "outputs": [
        {
          "internalType": "int256",
          "name": "",
          "type": "int256"
        }
      ],
      "stateMutability": "view",
      "type": "function"
    },
    {
      "inputs": [
        {
          "internalType": "int256",
          "name": "num1",
          "type": "int256"
        },
        {
          "internalType": "int256",
          "name": "num2",
          "type": "int256"
        }
      ],
      "name": "addNum",
      "outputs": [],
      "stateMutability": "nonpayable",
      "type": "function"
    },
    {
      "inputs": [],
      "name": "balance",
      "outputs": [
        {
          "internalType": "uint256",
          "name": "",
          "type": "uint256"
        }
      ],
      "stateMutability": "view",
      "type": "function"
    },
    {
      "inputs": [],
      "name": "owner",
      "outputs": [
        {
          "internalType": "address payable",
          "name": "",
          "type": "address"
        }
      ],
      "stateMutability": "view",
      "type": "function"
    },
    {
      "inputs": [
        {
          "internalType": "int256",
          "name": "num1",
          "type": "int256"
        },
        {
          "internalType": "int256",
          "name": "num2",
          "type": "int256"
        }
      ],
      "name": "subtractNum",
      "outputs": [],
      "stateMutability": "nonpayable",
      "type": "function"
    }
  ],
  "bytecode": "0x6080604052604051610458380380610458833981810160405281019061002591906100ad565b336000806101000a81548173ffffffffffffffffffffffffffffffffffffffff021916908373ffffffffffffffffffffffffffffffffffffffff16021790555080600181905550506100da565b600080fd5b6000819050919050565b61008a81610077565b811461009557600080fd5b50565b6000815190506100a781610081565b92915050565b6000602082840312156100c3576100c2610072565b5b60006100d184828501610098565b91505092915050565b61036f806100e96000396000f3fe608060405234801561001057600080fd5b50600436106100575760003560e01c806319e9a1811461005c5780638da5cb5b14610078578063b69ef8a814610096578063d0d604f1146100b4578063f4e5d599146100d0575b600080fd5b61007660048036038101906100719190610189565b6100ee565b005b610080610104565b60405161008d919061020a565b60405180910390f35b61009e610128565b6040516100ab919061023e565b60405180910390f35b6100ce60048036038101906100c99190610189565b61012e565b005b6100d8610144565b6040516100e59190610268565b60405180910390f35b80826100fa91906102b2565b6002819055505050565b60008054906101000a900473ffffffffffffffffffffffffffffffffffffffff1681565b60015481565b808261013a91906102f6565b6002819055505050565b6000600254905090565b600080fd5b6000819050919050565b61016681610153565b811461017157600080fd5b50565b6000813590506101838161015d565b92915050565b600080604083850312156101a05761019f61014e565b5b60006101ae85828601610174565b92505060206101bf85828601610174565b9150509250929050565b600073ffffffffffffffffffffffffffffffffffffffff82169050919050565b60006101f4826101c9565b9050919050565b610204816101e9565b82525050565b600060208201905061021f60008301846101fb565b92915050565b6000819050919050565b61023881610225565b82525050565b6000602082019050610253600083018461022f565b92915050565b61026281610153565b82525050565b600060208201905061027d6000830184610259565b92915050565b7f4e487b7100000000000000000000000000000000000000000000000000000000600052601160045260246000fd5b60006102bd82610153565b91506102c883610153565b9250828201905082811215600083121683821260008412151617156102f0576102ef610283565b5b92915050565b600061030182610153565b915061030c83610153565b925082820390508181126000841216828213600085121516171561033357610332610283565b5b9291505056fea2646970667358221220302778ded50297bf90325f348bdcd93a882ef3a8671907ba0090ce35e3892da764736f6c63430008110033",
  "linkReferences": {},
  "deployedLinkReferences": {}
}